:020000040800F2
:1000000000500020F9250008E9230008F12300082A
:10001000F92300080124000809240008000000005A
:100020000000000000000000000000001124000893
:100030001D240008000000002924000835240008C1
:1000400041260008412600084126000841260008F4
:1000500041260008412600084126000841260008E4
:1000600041260008412600084126000841260008D4
:1000700041240008412600084126000841260008C6
:1000800041260008412600084126000841260008B4
:1000900041260008412600084126000841260008A4
:1000A0004126000841260008412600084126000894
:1000B0004126000841260008412600084126000884
:1000C0004126000841260008412600084126000874
:1000D0004126000841260008412600085524000852
:1000E00041260008412600084126000800000000C3
:1000F0000000000000000000000000000000000000
:0C01000000000000000000005FF808F1A3
:1001100010B5054C237833B9044B13B10448AFF341
:1001200000800123237010BDD801002000000000D2
:10013000A89D000808B5034B1BB103490348AFF362
:10014000008008BD00000000DC010020A89D000820
:10015000034613F8012B002AFBD1181A0138704707
:1001600081F0004102E000BF83F0004330B54FEA68
:1001700041044FEA430594EA050F08BF90EA020FD5
:100180001FBF54EA000C55EA020C7FEA645C7FEA68
:10019000655C00F0E2804FEA5454D4EB5555B8BF8B
:1001A0006D420CDD2C4480EA020281EA030382EAFC
:1001B000000083EA010180EA020281EA0303362D8E
:1001C00088BF30BD11F0004F4FEA01314FF4801C61
:1001D0004CEA113102D0404261EB410113F0004F73
:1001E0004FEA03334CEA133302D0524263EB43032A
:1001F00094EA050F00F0A780A4F10104D5F1200EC8
:100200000DDB02FA0EFC22FA05F2801841F1000122
:1002100003FA0EF2801843FA05F359410EE0A5F1F6
:1002200020050EF1200E012A03FA0EFC28BF4CF027
:10023000020C43FA05F3C01851EBE37101F00045DD
:1002400007D54FF0000EDCF1000C7EEB00006EEBEA
:100250000101B1F5801F1BD3B1F5001F0CD3490874
:100260005FEA30004FEA3C0C04F101044FEA4452CB
:1002700012F5800F80F09A80BCF1004F08BF5FEA52
:10028000500C50F1000041EB045141EA050130BD32
:100290005FEA4C0C404141EB0101013C28BFB1F544
:1002A000801FE9D291F0000F04BF01460020B1FA8F
:1002B00081F308BF2033A3F10B03B3F120020CDA62
:1002C0000C3208DD02F1140CC2F10C0201FA0CF040
:1002D00021FA02F10CE002F11402D8BFC2F1200CA5
:1002E00001FA02F120FA0CFCDCBF41EA0C0190405B
:1002F000E41AA2BF01EB0451294330BD6FEA0404A4
:100300001F3C1CDA0C340EDC04F11404C4F120028E
:1003100020FA04F001FA02F340EA030021FA04F3A0
:1003200045EA030130BDC4F10C04C4F1200220FAF7
:1003300002F001FA04F340EA0300294630BD21FA35
:1003400004F0294630BD94F0000F83F4801306BFFB
:1003500081F480110134013D4EE77FEA645C18BFEF
:100360007FEA655C29D094EA050F08BF90EA020F86
:1003700005D054EA000C04BF1946104630BD91EA7E
:10038000030F1EBF0021002030BD5FEA545C05D181
:100390004000494128BF41F0004130BD14F58004C0
:1003A0003CBF01F5801130BD01F0004545F0FE4134
:1003B00041F470014FF0000030BD7FEA645C1ABF69
:1003C000194610467FEA655C1CBF0B46024650EAA0
:1003D000013406BF52EA033591EA030F41F40021CC
:1003E00030BD00BF90F0000F04BF0021704730B552
:1003F0004FF4806404F132044FF000054FF0000127
:1004000050E700BF90F0000F04BF0021704730B5E7
:100410004FF4806404F1320410F0004548BF4042BC
:100420004FF000013EE700BF42004FEAE2014FEA11
:1004300031014FEA02701FBF12F07F4393F07F4FEC
:1004400081F06051704732F07F4208BF704793F0EF
:100450007F4F04BF41F40021704730B54FF4607402
:1004600001F0004521F000411CE700BF50EA010205
:1004700008BF704730B54FF000050AE050EA0102AE
:1004800008BF704730B511F0004502D5404261EB1E
:1004900041014FF4806404F132045FEA915C3FF45F
:1004A000D8AE4FF003025FEADC0C18BF03325FEAFC
:1004B000DC0C18BF033202EBDC02C2F1200300FAAD
:1004C00003FC20FA02F001FA03FE40EA0E0021FAD2
:1004D00002F11444BDE600BF70B54FF0FF0C4CF4C0
:1004E000E06C1CEA11541DBF1CEA135594EA0C0F72
:1004F00095EA0C0F00F0DEF82C4481EA030621EAAD
:100500004C5123EA4C5350EA013518BF52EA0335E7
:1005100041F4801143F4801338D0A0FB02CE4FF099
:100520000005E1FB02E506F00042E0FB03E54FF0C9
:100530000006E1FB03569CF0000F18BF4EF0010EC1
:10054000A4F1FF04B6F5007F64F5407404D25FEABD
:100550004E0E6D4146EB060642EAC62141EA555170
:100560004FEAC52040EA5E504FEACE2EB4F1FD0CB2
:1005700088BFBCF5E06F1ED8BEF1004F08BF5FEA30
:10058000500E50F1000041EB045170BD06F00046E2
:1005900046EA010140EA020081EA0301B4EB5C048F
:1005A000C2BFD4EB0C0541EA045170BD41F4801187
:1005B0004FF0000E013C00F3AB8014F1360FDEBFAC
:1005C000002001F0004170BDC4F10004203C35DA88
:1005D0000C341BDC04F11404C4F1200500FA05F30B
:1005E00020FA04F001FA05F240EA020001F00042AC
:1005F00021F0004110EBD37021FA04F642EB060122
:100600005EEA430E08BF20EAD37070BDC4F10C044B
:10061000C4F1200500FA04F320FA05F001FA04F20F
:1006200040EA020001F0004110EBD37041F10001FB
:100630005EEA430E08BF20EAD37070BDC4F1200506
:1006400000FA05F24EEA020E20FA04F301FA05F26E
:1006500043EA020321FA04F001F0004121FA04F216
:1006600020EA020000EBD3705EEA430E08BF20EAE6
:10067000D37070BD94F0000F0FD101F00046400020
:1006800041EB010111F4801F08BF013CF7D041EAA2
:10069000060195F0000F18BF704703F000465200A6
:1006A00043EB030313F4801F08BF013DF7D043EA77
:1006B0000603704794EA0C0F0CEA135518BF95EA2D
:1006C0000C0F0CD050EA410618BF52EA4306D1D1B4
:1006D00081EA030101F000414FF0000070BD50EAD3
:1006E000410606BF1046194652EA430619D094EA5D
:1006F0000C0F02D150EA013613D195EA0C0F05D147
:1007000052EA03361CBF104619460AD181EA03019A
:1007100001F0004141F0FE4141F470014FF0000052
:1007200070BD41F0FE4141F4780170BD70B54FF0ED
:10073000FF0C4CF4E06C1CEA11541DBF1CEA13556D
:1007400094EA0C0F95EA0C0F00F0A7F8A4EB05044F
:1007500081EA030E52EA03354FEA013100F0888046
:100760004FEA03334FF0805545EA131343EA12630F
:100770004FEA022245EA111545EA10654FEA0026C4
:100780000EF000419D4208BF964244F1FD0404F57D
:10079000407402D25B084FEA3202B61A65EB0305D9
:1007A0005B084FEA32024FF480104FF4002CB6EB96
:1007B000020E75EB030E22BFB61A754640EA0C0016
:1007C0005B084FEA3202B6EB020E75EB030E22BF56
:1007D000B61A754640EA5C005B084FEA3202B6EB97
:1007E000020E75EB030E22BFB61A754640EA9C0056
:1007F0005B084FEA3202B6EB020E75EB030E22BF26
:10080000B61A754640EADC0055EA060E18D04FEAE3
:10081000051545EA16754FEA06164FEAC30343EA83
:1008200052734FEAC2025FEA1C1CC0D111F4801F50
:100830000BD141EA00014FF000004FF0004CB6E749
:1008400011F4801F04BF01430020B4F1FD0C88BFE8
:10085000BCF5E06F3FF6AFAEB5EB030C04BFB6EBF3
:10086000020C5FEA500C50F1000041EB045170BDE6
:100870000EF0004E4EEA113114EB5C04C2BFD4EB13
:100880000C0541EA045170BD41F480114FF0000E97
:10089000013C90E645EA060E8DE60CEA135594EA13
:1008A0000C0F08BF95EA0C0F3FF43BAF94EA0C0F16
:1008B0000AD150EA01347FF434AF95EA0C0F7FF48B
:1008C00025AF104619462CE795EA0C0F06D152EADF
:1008D00003353FF4FDAE1046194622E750EA4106C3
:1008E00018BF52EA43067FF4C5AE50EA41047FF4D4
:1008F0000DAF52EA43057FF4EBAE12E74FF0FF3C39
:1009000006E000BF4FF0010C02E000BF4FF0010C09
:100910004DF804CD4FEA410C7FEA6C5C4FEA430C82
:1009200018BF7FEA6C5C1BD001B050EA410C0CBFD1
:1009300052EA430C91EA030F02BF90EA020F002033
:10094000704710F1000F91EA030F58BF994208BF9A
:1009500090422CBFD8176FEAE37040F00100704757
:100960004FEA410C7FEA6C5C02D150EA013C07D1AE
:100970004FEA430C7FEA6C5CD6D152EA033CD3D0F9
:100980005DF8040B704700BF8446104662468C46F3
:100990001946634600E000BF01B5FFF7B7FF002826
:1009A00048BF10F1000F01BD4DF808EDFFF7F4FF4F
:1009B0000CBF012000205DF808FB00BF4DF808EDDA
:1009C000FFF7EAFF34BF012000205DF808FB00BFFD
:1009D0004DF808EDFFF7E0FF94BF012000205DF81F
:1009E00008FB00BF4DF808EDFFF7CEFF94BF0120D4
:1009F00000205DF808FB00BF4DF808EDFFF7C4FFCD
:100A000034BF012000205DF808FB00BF4FEA410C15
:100A10007FEA6C5C02D150EA013C0AD14FEA430CF8
:100A20007FEA6C5C02D152EA033C02D14FF0000035
:100A300070474FF0010070474FEA410212F5001273
:100A400015D211D56FF47873B3EB625212D94FEA15
:100A5000C12343F0004343EA505311F0004F23FAFF
:100A600002F018BF404270474FF00000704750EA54
:100A7000013005D111F0004008BF6FF00040704711
:100A80004FF00000704700BF80F0004002E000BF60
:100A900081F0004142001FBF5FEA410392EA030F69
:100AA0007FEA226C7FEA236C6AD04FEA1262D2EBB3
:100AB0001363C1BFD218414048404140B8BF5B42B8
:100AC000192B88BF704710F0004F40F4000020F051
:100AD0007F4018BF404211F0004F41F4000121F067
:100AE0007F4118BF494292EA030F3FD0A2F10102B1
:100AF00041FA03FC10EB0C00C3F1200301FA03F1EF
:100B000000F0004302D5494260EB4000B0F5000F11
:100B100013D3B0F1807F06D340084FEA310102F1D0
:100B20000102FE2A51D2B1F1004F40EBC25008BF82
:100B300020F0010040EA03007047490040EB00004C
:100B4000013A28BFB0F5000FEDD2B0FA80FCACF14D
:100B5000080CB2EB0C0200FA0CF0AABF00EBC2507A
:100B600052421843BCBFD0401843704792F0000F68
:100B700081F4000106BF80F400000132013BB5E7BB
:100B80004FEA41037FEA226C18BF7FEA236C21D031
:100B900092EA030F04D092F0000F08BF0846704796
:100BA00090EA010F1CBF0020704712F07F4F04D164
:100BB000400028BF40F00040704712F100723CBF77
:100BC00000F50000704700F0004343F0FE4040F4A1
:100BD000000070477FEA226216BF08467FEA23635F
:100BE0000146420206BF5FEA412390EA010F40F44A
:100BF000800070474FF0000304E000BF10F0004396
:100C000048BF40425FEA000C08BF704743F096437C
:100C100001464FF000001CE050EA010208BF704797
:100C20004FF000030AE000BF50EA010208BF70471E
:100C300011F0004302D5404261EB41015FEA010C33
:100C400002BF84460146002043F0B64308BFA3F12B
:100C50008053A3F50003BCFA8CF2083AA3EBC2530D
:100C600010DB01FA02FC634400FA02FCC2F120022C
:100C7000BCF1004F20FA02F243EB020008BF20F063
:100C80000100704702F1200201FA02FCC2F12002C9
:100C900050EA4C0021FA02F243EB020008BF20EABE
:100CA000DC7070474FF0FF0C1CEAD0521EBF1CEAEC
:100CB000D15392EA0C0F93EA0C0F6FD01A4480EADA
:100CC000010C400218BF5FEA41211ED04FF00063C3
:100CD00043EA501043EA5111A0FB01310CF00040EF
:100CE000B1F5000F3EBF490041EAD3715B0040EA15
:100CF000010062F17F02FD2A1DD8B3F1004F40EBE5
:100D0000C25008BF20F00100704790F0000F0CF0B7
:100D1000004C08BF49024CEA502040EA51207F3A7B
:100D2000C2BFD2F1FF0340EAC250704740F4000056
:100D30004FF00003013A5DDC12F1190FDCBF00F047
:100D400000407047C2F10002410021FA02F1C2F1F5
:100D5000200200FA02FC5FEA310040F1000053EA91
:100D60004C0308BF20EADC70704792F0000F00F0DF
:100D7000004C02BF400010F4000F013AF9D040EAE5
:100D80000C0093F0000F01F0004C02BF490011F479
:100D9000000F013BF9D041EA0C018FE70CEAD15377
:100DA00092EA0C0F18BF93EA0C0F0AD030F0004CF7
:100DB00018BF31F0004CD8D180EA010000F00040AB
:100DC000704790F0000F17BF90F0004F084691F069
:100DD000000F91F0004F14D092EA0C0F01D14202A3
:100DE0000FD193EA0C0F03D14B0218BF084608D16C
:100DF00080EA010000F0004040F0FE4040F40000B6
:100E0000704740F0FE4040F4400070474FF0FF0C48
:100E10001CEAD0521EBF1CEAD15392EA0C0F93EA8F
:100E20000C0F69D0A2EB030280EA010C49024FEAE1
:100E3000402037D04FF0805343EA111143EA10139A
:100E40000CF000408B4238BF5B0042F17D024FF452
:100E5000000C8B4224BF5B1A40EA0C00B3EB510F2D
:100E600024BFA3EB510340EA5C00B3EB910F24BF16
:100E7000A3EB910340EA9C00B3EBD10F24BFA3EB9B
:100E8000D10340EADC001B0118BF5FEA1C1CE0D163
:100E9000FD2A3FF650AF8B4240EBC25008BF20F016
:100EA000010070470CF0004C4CEA50207F32C2BF6A
:100EB000D2F1FF0340EAC250704740F400004FF007
:100EC0000003013A37E792F0000F00F0004C02BF38
:100ED000400010F4000F013AF9D040EA0C0093F002
:100EE000000F01F0004C02BF490011F4000F013B5C
:100EF000F9D041EA0C0195E70CEAD15392EA0C0FC4
:100F000008D142027FF47DAF93EA0C0F7FF470AFFB
:100F1000084676E793EA0C0F04D14B023FF44CAF3E
:100F200008466EE730F0004C18BF31F0004CCAD1D3
:100F300030F000427FF45CAF31F000437FF43CAF0F
:100F40005FE700BF4FF0FF3C06E000BF4FF0010C31
:100F500002E000BF4FF0010C4DF804CD4FEA400213
:100F60004FEA41037FEA226C18BF7FEA236C11D05D
:100F700001B052EA530C18BF90EA010F58BFB2EB10
:100F8000030088BFC81738BF6FEAE17018BF40F090
:100F9000010070477FEA226C02D15FEA402C05D144
:100FA0007FEA236CE4D15FEA412CE1D05DF8040BC9
:100FB000704700BF844608466146FFE70FB5FFF75C
:100FC000C9FF002848BF10F1000F0FBD4DF808ED14
:100FD000FFF7F4FF0CBF012000205DF808FB00BF05
:100FE0004DF808EDFFF7EAFF34BF012000205DF85F
:100FF00008FB00BF4DF808EDFFF7E0FF94BF0120AC
:1010000000205DF808FB00BF4DF808EDFFF7D2FFA8
:1010100094BF012000205DF808FB00BF4DF808EDEB
:10102000FFF7C8FF34BF012000205DF808FB00BFB8
:1010300042000ED2B2F1FE4F0BD34FF09E03B3EB42
:10104000126209D44FEA002343F0004323FA02F06E
:1010500070474FF00000704712F1610F01D142025A
:1010600002D14FF0FF3070474FF00000704700BFD3
:1010700080B586B000AF7860396007F108030022C0
:101080001A605A609A600023FB823B68BB600123B0
:10109000FB6005233B6107F108031946786802F0FD
:1010A0005BFE0346002B01D0002312E0786802F0BB
:1010B00067FC0A21786802F03DFD0346002B04D14D
:1010C000786802F03DFE0346FB82786802F006FD78
:1010D000FB8A18461837BD4680BD000080B500AFBA
:1010E000024804F035FB00BF80BD00BFF4020020C1
:1010F00080B483B000AF7860034A7B68136000BFA0
:101100000C37BD4680BC7047F401002080B400AFAE
:10111000034B1B78DBB21846BD4680BC704700BF4E
:10112000F801002090B585B000AF7860104B1B78B7
:10113000DBB2002B01D0022315E00D4B01221A7007
:101140000C4B1C687868FFF703F803469AB24FF01F
:10115000FF337968204605F027F90346FB73044BFB
:1011600000221A70FB7B18461437BD4690BD00BFA5
:10117000F8010020F401002080B483B000AF786053
:10118000064B1B687A689A4202D1054B00221A70FE
:1011900000BF0C37BD4680BC704700BFF401002083
:1011A000F801002080B582B000AF78600B467B80EC
:1011B0007B8801221946786803F0CDFC00BF083710
:1011C000BD4680BD80B582B000AF78600B467B80A5
:1011D0007B8800221946786803F0BDFC00BF083701
:1011E000BD4680BD80B582B000AF7860786802F0FF
:1011F00047FF00BF0837BD4680BD80B582B000AF55
:10120000786002217868FFF733FF034618460837F5
:10121000BD4680BD80B582B000AF78600B467B8054
:101220007B881946786803F07FFC03461846083728
:10123000BD4680BD80B584B000AFF860B9603B604A
:101240001346FB80F868FFF7D8FF03461A463B6851
:101250001A803B681B88184600F012F803461A46AD
:101260003B689A70FB881946B868FFF7D3FF0346BE
:101270001A463B68DA7000BF1037BD4680BD0000DB
:1012800080B483B000AF0346FB80FB88642203FB7D
:1012900002F2064BA3FB0213D21A52081344DB0AD4
:1012A000DBB218460C37BD4680BC70470101100008
:1012B00080B483B000AF78607B68DB7818460C3769
:1012C000BD4680BC7047000080B582B000AF78603A
:1012D0000B467B807B8800221946786803F03BFC34
:1012E000034B00221A7000BF0837BD4680BD00BF07
:1012F0007802002080B582B000AF78600B467B801A
:101300007B8801221946786803F025FC034B0122F3
:101310001A7000BF0837BD4680BD00BF78020020AC
:1013200080B582B000AF78600B467B807B8800225E
:101330001946786803F00FFC034B00221A7000BFB7
:101340000837BD4680BD00BF7802002080B400AFE2
:10135000024B1B781846BD4680BC704778020020BF
:1013600080B582B000AF7860786802F089FE00BF77
:101370000837BD4680BD000090B58BB000AF7860E7
:1013800000237B620A23FB7500233B6206E00521F4
:101390007868FFF76DFE3B6A01333B623B6A062BC0
:1013A000F5DD0023FB610BE005217868FFF760FEA7
:1013B00003461A467B6A13447B62FB690133FB6177
:1013C000FB7DFA699A42EFDB786AFFF713FC04466B
:1013D000FB7D1846FFF70EFC034619462046FFF733
:1013E00015FD03463B611A493869FFF75BFC03466C
:1013F00018491846FFF70AFD0346FB601449F868D0
:10140000FFF704FD034614491846FFF741FB034666
:1014100012491846FFF7FAFC0346BB614FF0000182
:10142000B869FFF7DDFD0346002B02D04FF0000343
:10143000BB610B49B869FFF7F1FD0346002B01D0F2
:10144000074BBB61BB6918462C37BD4690BD00BF3A
:101450000000A04000F07F45D1221B3E8C67D03BAE
:101460000000C84280B500AF01220221074803F006
:1014700072FB012002F088F900220221034803F0E8
:101480006AFB012002F080F900BF80BD000C014022
:1014900080B582B000AF0346FB71FB7903F0010316
:1014A000DBB21A460421154803F055FBFB795B08B3
:1014B000DBB203F00103DBB21A4608210F4803F048
:1014C0004AFBFB799B08DBB203F00103DBB21A464F
:1014D00010210A4803F03FFBFB79DB08DBB203F085
:1014E0000103DBB21A462021044803F034FBFFF766
:1014F000B9FF00BF0837BD4680BD00BF000C0140EA
:1015000080B582B000AF03460A46FB711346BB713B
:10151000BB791A4601210B4803F01DFBFB791B091F
:10152000DBB21846FFF7B4FFFB7903F00F03DBB221
:101530001846FFF7ADFF022002F026F900BF08377A
:10154000BD4680BD000C014080B582B000AF0346AF
:10155000FB71FB7900211846FFF7D2FF00BF083767
:10156000BD4680BD80B582B000AF0346FB71FB79FC
:1015700001211846FFF7C4FF00BF0837BD4680BDF4
:1015800080B582B000AF0346FB71FB791846FFF7C8
:10159000E9FF00BF0837BD4680BD80B582B000AF0F
:1015A000786006E07B685A1C7A601B781846FFF763
:1015B000E7FF7B681B78002BF4D100BF00BF083722
:1015C000BD4680BD80B500AF0120FFF7BDFF032001
:1015D00002F0DAF800BF80BD80B584B000AF0346EA
:1015E0000A46FB711346BB71FB79022B0DD0022B0F
:1015F0000FDC002B02D0012B03D00AE0BB79FB7378
:101600000BE0BB794033FB7307E0BB791433FB730A
:1016100003E0BB795433FB7300BFFB7B63F07F03B4
:10162000DBB21846FFF790FF00BF1037BD4680BD04
:101630000FB480B582B000AF07F114037B607B6804
:101640003A694021064806F0A7FA0548FFF7A5FFCA
:1016500000BF0837BD46BDE8804004B0704700BFFA
:101660007C02002080B500AF322002F08DF800220D
:101670000121124803F06FFA0320FFF709FF05204C
:1016800002F082F80320FFF703FF052002F07CF848
:101690000320FFF7FDFE012002F076F80220FFF79D
:1016A000F7FE2820FFF750FF0C20FFF74DFF062024
:1016B000FFF74AFFFFF786FF00BF80BD000C014027
:1016C000B0B586B002AFF860B96011461A460B4655
:1016D000FB801346BB8000210020FFF77DFFF868E8
:1016E000FEF7A2FE04460D46B868FEF79DFE0246D0
:1016F0000B46CDE9002322462B463B48FFF798FFD7
:1017000000210120FFF768FFF98897F82030002BAF
:1017100001D0364B00E0364B1A463648FFF788FFBB
:1017200000210220FFF758FF97F82430002B01D04A
:10173000314900E0314997F82830002B01D02E4A7A
:1017400000E02E4A97F82C30002B01D02A4B00E005
:101750002A4B2B48FFF76CFF00210320FFF73CFFCB
:1017600097F83030002B37D02649F868FFF756FC41
:101770000346002B03D02448FFF70FFF2FE0234937
:10178000F868FFF72DFC0346002B03D02048FFF735
:1017900004FF24E01F49B868FFF740FC0346002B14
:1017A00003D01D48FFF7F9FE19E01C49B868FFF7A0
:1017B00017FC0346002B03D01948FFF7EEFE0EE09E
:1017C00097F82030002B03D01648FFF7E6FE06E01E
:1017D0001548FFF7E2FE02E01448FFF7DEFE00BF07
:1017E0001037BD46B0BD00BFC09D0008DC9D00089D
:1017F000E09D0008E49D0008FC9D0008009E000894
:10180000049E000800000C42149E00080000904155
:10181000289E00080000A0423C9E000800002042D4
:10182000509E0008649E0008789E00088C9E000868
:1018300080B582B000AF7860786802F021FC00BF0C
:101840000837BD4680BD80B582B000AF786000210A
:101850007868FFF70DFC034618460837BD4680BD83
:1018600080B582B000AF03463960FB801346BB8071
:10187000FB88B3F5E16F06D2BB88012219463868B0
:1018800003F069F905E0BB8800221946386803F0C7
:1018900062F900BF0837BD4680BD80B582B000AF99
:1018A0007860786802F0ECFB00BF0837BD4680BD69
:1018B00090B589B000AF78600023FB610A23FB7507
:1018C00004217868FFF7D4FB0023BB610BE00421FF
:1018D0007868FFF7CDFB03461A46FB691344FB61AA
:1018E000BB690133BB61FB7DBA699A42EFDBF869E2
:1018F000FFF780F90446FB7D1846FFF77BF90346A6
:1019000019462046FFF782FA03463B610A493869C7
:10191000FFF7C8F9034609491846FFF777FA034667
:10192000FB600749F868FFF7BDF90346BB60BB6879
:1019300018462437BD4690BD0000A04000F07F450A
:101940000000C84280B582B000AF78600B467B8053
:101950007B8800221946786803F0FDF8034B0022CB
:101960001A7000BF0837BD4680BD00BFBC02002012
:1019700080B582B000AF78600B467B807B88012207
:101980001946786803F0E7F8034B01221A7000BF8C
:101990000837BD4680BD00BFBC02002080B582B0C4
:1019A00000AF78600B467B807B8800221946786800
:1019B00003F0D1F8034B00221A7000BF0837BD4670
:1019C00080BD00BFBC02002080B582B000AF78604F
:1019D0000C4A7B6813600B4B1B680021184603F010
:1019E00059FF084B1B680421184603F053FF054BB1
:1019F0001B680821184603F04DFF00BF0837BD469D
:101A000080BD00BFC002002080B588B000AF786004
:101A1000274B1B681B68DB6A7B6100233B61254900
:101A20007868FFF7E7FA0346002B04D07B69FB6177
:101A30000023BB6128E020497868FFF7E5FA0346F8
:101A4000002B04D00023FB617B69BB611CE01949BA
:101A50007868FFF71DF8034616491846FFF7D6F9D0
:101A60000346FB607869FFF7C5F80346F968184636
:101A7000FFF718F903461846FFF7DAFA0346BB6189
:101A80007A69BB69D31AFB61094B1B681B68FA6949
:101A90005A63074B1B681B68BA699A63044B1B683F
:101AA0001B683A69DA6300BF2037BD4680BD00BFBE
:101AB000C0020020000020420000A04280B582B099
:101AC00000AF7860786802F0DBFA00BF0837BD46E7
:101AD00080BD80B582B000AF786001217868FFF7E3
:101AE000C7FA034618460837BD4680BD80B483B0A8
:101AF00000AF0346FB80FB88642203FB02F2064B27
:101B0000A3FB0213D21A52081344DB0ADBB21846B5
:101B10000C37BD4680BC70470101100080B582B013
:101B200000AF786039607868FFF7D3FF03461A4644
:101B30003B681A803B681B881846FFF7D7FF0346AF
:101B40001A463B689A7000BF0837BD4680BD80B416
:101B500083B000AF78607B689B78272B01D8012386
:101B600000E0002318460C37BD4680BC70470000DB
:101B700080B582B000AF01F0A5FD00F05BF800F089
:101B800031FA00F011FA00F0A5F800F0B9F900F010
:101B9000DFF800F0DFF900F027F901F041F801F07B
:101BA0007BFC01F0E7FD786001F0C0FC1C4B1B687A
:101BB0007A68D31A132B04D9194A7B68136000F092
:101BC000E9FF184B1B687A68D31A132B04D9154AFE
:101BD0007B68136000F036FD134B1B687A68D31ADC
:101BE000132B04D9104A7B68136000F035FF0F4BAC
:101BF0001B687A68D31AF92B04D90C4A7B681360E6
:101C000000F0DEFE0A4B1B687A68D31AB3F5FA7F40
:101C1000C7D3074A7B68136001F00AFDC1E700BF24
:101C2000580400205C0400206804002060040020A8
:101C30006404002080B594B000AF07F12803282287
:101C40000021184605F0B6FF07F1140300221A60C0
:101C50005A609A60DA601A613B1D00221A605A606D
:101C60009A60DA600223BB620123BB631023FB632B
:101C700000237B6407F12803184602F09DFF03460A
:101C8000002B01D000F01EFA0F237B610023BB6103
:101C90000023FB6100233B6200237B6207F11403F6
:101CA0000021184603F00AFA0346002B01D000F089
:101CB00009FA02237B600023FB603B1D184603F0FA
:101CC0008BFB0346002B01D000F0FCF900BF50371E
:101CD000BD4680BD80B584B000AF3B1D00221A60B8
:101CE0005A609A60184B194A1A60174B00229A6082
:101CF000154B00221A73144B00221A75124B4FF425
:101D00006022DA61104B00225A600F4B01221A61E7
:101D10000D4801F05DFD0346002B01D000F0D2F923
:101D200000237B600123BB600023FB603B1D194641
:101D3000054802F011F80346002B01D000F0C2F96B
:101D400000BF1037BD4680BDC40200200024014002
:101D500080B586B000AF07F1080300221A605A6010
:101D60009A60DA603B4600221A605A601D4B4FF0C1
:101D700080421A601B4B07225A601A4B00229A605D
:101D8000184B4FF6FF72DA60164B00221A61154BA2
:101D900000229A61134803F08BFC0346002B01D00C
:101DA00000F090F94FF48053BB6007F10803194627
:101DB0000C4803F0D3FE0346002B01D000F082F95B
:101DC00000233B6000237B603B461946054804F036
:101DD0003DFA0346002B01D000F074F900BF18371C
:101DE000BD4680BDF402002080B58EB000AF07F183
:101DF000280300221A605A609A60DA6007F1200313
:101E000000221A605A603B1D00221A605A609A60D4
:101E1000DA601A615A619A61374B384A1A60364B58
:101E200000225A60344B00229A60334B4FF6FF7207
:101E3000DA60314B00221A612F4B00229A612E4842
:101E400003F036FC0346002B01D000F03BF94FF4C1
:101E50008053BB6207F128031946274803F07EFE32
:101E60000346002B01D000F02DF9234803F0BAFC03
:101E70000346002B01D000F025F900233B6200232C
:101E80007B6207F1200319461B4804F0DFF9034683
:101E9000002B01D000F016F960237B600023BB60AB
:101EA0000023FB6000237B613B1D00221946124882
:101EB00003F092FD0346002B01D000F003F93B1D17
:101EC000042219460C4803F087FD0346002B01D07D
:101ED00000F0F8F83B1D08221946074803F07CFD86
:101EE0000346002B01D000F0EDF8034800F08EF916
:101EF00000BF3837BD4680BD3C03002000080040CD
:101F000080B500AF114B124A1A60104B4FF4E1320A
:101F10005A600E4B00229A600C4B0022DA600B4B89
:101F200000221A61094B0C225A61084B00229A6167
:101F3000064B0022DA61054804F0E6F90346002B5F
:101F400001D000F0BFF800BF80BD00BF84030020B7
:101F50000038014080B500AF114B124A1A60104B97
:101F60004FF4E1325A600E4B00229A600C4B002273
:101F7000DA600B4B00221A61094B0C225A61084BA4
:101F800000229A61064B0022DA61054804F0BCF990
:101F90000346002B01D000F095F800BF80BD00BFC4
:101FA000CC0300200048004080B582B000AF0C4B4D
:101FB0005B690B4A43F001035361094B5B6903F012
:101FC00001037B607B68002200210C2002F0DDF918
:101FD0000C2002F0F6F900BF0837BD4680BD00BFF7
:101FE0000010024080B586B000AF07F10803002260
:101FF0001A605A609A60DA602F4B9B692E4A43F050
:10200000040393612C4B9B6903F004037B607B68A2
:10201000294B9B69284A43F008039361264B9B692F
:1020200003F008033B603B68002247F23F0123486E
:1020300002F091FD00224FF47941214802F08BFD1E
:102040000823BB600023FB6001233B6107F1080309
:1020500019461B4802F0E4FB47F23F03BB60012333
:10206000FB6000233B6102237B6107F108031946F3
:10207000124802F0D5FB4FF40043BB600023FB6025
:1020800001233B6107F1080319460C4802F0C8FB25
:102090004FF47943BB600123FB6000233B610223C3
:1020A0007B6107F108031946054802F0B9FB00BF40
:1020B0001837BD4680BD00BF00100240000C014033
:1020C0000008014080B400AF72B600BF00BFFDE75A
:1020D00080B485B000AF154B9B69144A43F00103EF
:1020E0009361124B9B6903F00103BB60BB680F4B0C
:1020F000DB690E4A43F08053D3610C4BDB6903F07C
:1021000080537B607B680A4B5B68FB60FB6823F055
:10211000E063FB60FB6843F08063FB60044AFB689C
:10212000536000BF1437BD4680BC704700100240AA
:102130000000014080B588B000AF786007F110035F
:1021400000221A605A609A60DA607B681B68144A41
:10215000934221D1134B9B69124A43F4007393615C
:10216000104B9B6903F40073FB60FB680D4B9B698C
:102170000C4A43F0040393610A4B9B6903F0040388
:10218000BB60BB6837233B6103237B6107F110030E
:102190001946054802F044FB00BF2037BD4680BD0C
:1021A00000240140001002400008014080B485B0C6
:1021B00000AF78607B681B68B3F1804F0CD1114B86
:1021C000DB69104A43F00103D3610E4BDB6903F076
:1021D0000103FB60FB6810E07B681B680A4A9342BE
:1021E0000BD1084BDB69074A43F00403D361054B6D
:1021F000DB6903F00403BB60BB6800BF1437BD4656
:1022000080BC7047001002400008004080B588B0D4
:1022100000AF786007F1100300221A605A609A60DC
:10222000DA607B681B68104A934218D10F4B9B6998
:102230000E4A43F0080393610C4B9B6903F00803BB
:10224000FB60FB684FF4E0733B6102237B61022378
:10225000FB6107F110031946054802F0E1FA00BFDF
:102260002037BD4680BD00BF00080040001002407E
:10227000000C014080B58AB000AF786007F1180308
:1022800000221A605A609A60DA607B681B684F4AC5
:10229000934232D14E4B9B694D4A43F48043936144
:1022A0004B4B9B6903F480437B617B69484B9B6983
:1022B000474A43F004039361454B9B6903F00403D1
:1022C0003B613B694FF40073BB610223FB61032355
:1022D0007B6207F1180319463E4802F0A1FA4FF459
:1022E0008063BB610023FB6100233B6207F118039D
:1022F0001946384802F094FA64E07B681B68364A55
:1023000093425FD1324BDB69314A43F48023D3617E
:102310002F4BDB6903F48023FB60FB682C4B9B692C
:102320002B4A43F008039361294B9B6903F0080390
:10233000BB60BB684FF48063BB610223FB61032376
:102340007B6207F118031946244802F069FA4FF43A
:102350000063BB610023FB6100233B6207F11803AC
:1023600019461E4802F05CFA1D4B1E4A1A601C4BAF
:1023700010225A601A4B00229A60194B8022DA60B0
:10238000174B00221A61164B00225A61144B00228F
:102390009A61134B0022DA61114802F02DF80346CE
:1023A000002B01D0FFF78EFE7B680D4A9A630C4A22
:1023B0007B68536200220021272001F0E6FF2720DE
:1023C00001F0FFFF00BF2837BD4680BD0038014047
:1023D000001002400008014000480040000C01408D
:1023E000140400201C00024080B400AF00BFFDE7D1
:1023F00080B400AF00BFFDE780B400AF00BFFDE7D1
:1024000080B400AF00BFFDE780B400AF00BFFDE7C0
:1024100080B400AF00BFBD4680BC704780B400AF41
:1024200000BFBD4680BC704780B400AF00BFBD4652
:1024300080BC704780B500AF01F08AF900BF80BD55
:1024400080B500AF024802F0E5F800BF80BD00BFD4
:102450001404002080B500AF024804F055F800BF16
:1024600080BD00BFCC03002080B400AF012318461C
:10247000BD4680BC704780B582B000AF78603960DF
:1024800005F00EFC034616221A604FF0FF33184683
:102490000837BD4680BD80B582B000AF78604FF090
:1024A000FF317868FFF7E7FF00BFFDE780B586B032
:1024B00000AFF860B9607A6000237B610AE0AFF397
:1024C00000800146BB685A1CBA60CAB21A707B69A8
:1024D00001337B617A697B689A42F0DB7B6818463E
:1024E0001837BD4680BD80B586B000AFF860B960D2
:1024F0007A6000237B6109E0BB685A1CBA601B78D4
:102500001846AFF300807B6901337B617A697B6891
:102510009A42F1DB7B6818461837BD4680BD80B40F
:1025200083B000AF78604FF0FF3318460C37BD46DC
:1025300080BC704780B483B000AF786039603B687E
:102540004FF400525A60002318460C37BD4680BC39
:10255000704780B483B000AF7860012318460C3711
:10256000BD4680BC704780B485B000AFF860B960EC
:102570007A60002318461437BD4680BC70470000BF
:1025800080B586B000AF7860144A154BD31A7B61D2
:102590007B693B61134B1B68002B02D1114B124A24
:1025A0001A60104B1A687B6813443A699A4207D242
:1025B00005F076FB03460C221A604FF0FF3309E06A
:1025C000084B1B68FB60074B1A687B681344054A7D
:1025D0001360FB6818461837BD4680BD00500020C8
:1025E000000400006C0400205008002080B400AFFC
:1025F00000BFBD4680BC7047FFF7F8FF0B480C4991
:102600000C4A002302E0D458C4500433C4188C424E
:10261000F9D3094A094C002301E013600432A242B5
:10262000FBD305F043FBFFF7A3FA7047000000203F
:10263000D801002060A40008D80100205008002024
:10264000FEE7000080B500AFAE4B1B78012B40F0D9
:10265000E380AD4B00221A70AC4B00221A70AC4BD9
:1026600000221A70AB48FEF723FE0346002B02D06F
:10267000A64B01221A70A848FFF769FA0346002BFF
:1026800002D0A34B01221A70A44B1B68A449184620
:10269000FEF7A6FC0346002B0FD001224FF4805119
:1026A000A04802F058FA00224FF400619D4802F061
:1026B00052FA954B01221A7027E0984B1B689A49F1
:1026C0001846FEF7ABFC0346002B12D001224FF454
:1026D0008051944802F03FFA00224FF40061914883
:1026E00002F039FA884B01221A70884B01221A70C5
:1026F0000BE000224FF480518A4802F02CFA0122AC
:102700004FF40061874802F026FA884B1B6888491D
:102710001846FEF765FC0346002B12D001224FF449
:102720008041804802F017FA00224FF400517D48A2
:1027300002F011FA744B01221A70754B01221A70C3
:1027400027E07A4B1B687B491846FEF767FC034677
:10275000002B12D001224FF48041724802F0FBF9A5
:1027600000224FF400516F4802F0F5F9664B012248
:102770001A70664B01221A700BE000224FF4804160
:10278000684802F0E8F901224FF40051654802F070
:10279000E2F95D4B1B78002B05D04FF400416148F6
:1027A00002F0F1F905E000224FF400415D4802F02B
:1027B000D2F9564B1B78002B05D04FF480415E4870
:1027C000FEF7F0FC04E04FF480415B48FEF7FAFCB2
:1027D0004F4B1B78002B05D04FF400515648FFF7A4
:1027E000C7F804E04FF400515348FFF7D7F84B4BBC
:1027F0001B6852491846FEF7F3FB0346002B05D031
:102800004FF480514C48FEF775FDCDE04FF48051F8
:102810004948FEF785FDC7E0404B1B684049184614
:10282000FEF7DEFB0346002B08D13C4B1B683E49FC
:102830001846FEF7F3FB0346002B0FD001224FF49E
:102840008051384802F087F900224FF40061354882
:1028500002F081F92C4B01221A700BE000224FF498
:102860008051304802F077F901224FF400612D4881
:1028700002F071F92D4B1B682D491846FEF7B0FB8D
:102880000346002B08D1294B1B682A491846FEF73E
:10289000C5FB0346002B0FD001224FF48041214895
:1028A00002F059F900224FF400511E4802F053F98A
:1028B000154B01221A700BE000224FF48041194899
:1028C00002F049F901224FF40051164802F043F991
:1028D0000D4B1B78002B05D04FF40041114802F03E
:1028E00052F905E000224FF400410E4802F033F99E
:1028F000064B1B78002B23D04FF480410E48FEF787
:1029000051FC22E0000000200C0200200D020020FB
:102910000E020020FC010020000200200402002022
:1029200000009041000801400000F0410802002032
:1029300000005C420000A042000C01400000B041D9
:102940004FF480411948FEF73DFC194B1B78002BD2
:1029500005D04FF400511548FFF70AF804E04FF492
:1029600000511248FFF71AF8124B1B78002B05D0C4
:102970004FF480510D48FEF7BDFC04E04FF4805148
:102980000A48FEF7CDFC0C4B1B78002B06D0012229
:102990004FF48071094802F0DEF805E000224FF4A0
:1029A0008071064802F0D7F800BF80BD000C0140DE
:1029B0000E0200200F02002010020020000801403B
:1029C0002DE9F0418AB006AF1B4B1C681B4B1D68FC
:1029D0001B4B9B7898461B4B1E881B48FEF768FCD8
:1029E0000346FB604FF48041184802F09DF803460F
:1029F000BB604FF40051154802F096F803467B6027
:102A00004FF48071124802F08FF803461A46114BBA
:102A10001B78049303927A680292BA680192FB6869
:102A200000933346424629462046FEF749FE00BF42
:102A30001037BD46BDE8F0810402002008020020E6
:102A400000020020FA010020FC010020000C0140DF
:102A5000000801400C0200202DE9F04196B00CAFB7
:102A6000FEF754FB0346002B75D13D4B1B683D49D7
:102A70001846FEF717F903461846FEF7D9FA03463B
:102A8000FB84394B1B6837491846FEF70BF90346A0
:102A90001846FEF7CDFA0346BB84FB8C334AA2FBF3
:102AA0000323DB089BB29846FA8C304BA3FB02133E
:102AB000D9080B469B000B445B00D31A9BB21C4603
:102AC000BB8C2A4AA2FB0323DB089BB21D46BA8CAF
:102AD000264BA3FB0213D9080B469B000B445B005B
:102AE000D31A9BB21E46224B9B78FB61214B9B78ED
:102AF000BB61214B1B887B61204B1B783B61204BCA
:102B00001B78FB60FEF722FC0346BB601D4B1B7865
:102B10007B604FF480711C4802F006F803460A936C
:102B20007A680992BA680892FA6807923A69069236
:102B30007A690592BA690492FB690393029601953A
:102B400000944346114A8021114804F05BFF10486D
:102B5000FEF7E8FA00E000BF2837BD46BDE8F08187
:102B6000040200200000204108020020CDCCCCCC83
:102B700000020020FC010020FA0100200D020020CC
:102B80000E0200200C02002000080140A09E000858
:102B90007004002080B500AF1848FEF754FE0346CD
:102BA0001A46174B1A80174B1B78012B07D1144B71
:102BB0001B884FF4807214491846FEF751FE134BE0
:102BC0004FF4004212490D48FEF734FB11490B48FF
:102BD000FEF7A4FF0948FEF76BFE03460E4A13609A
:102BE0000648FEF7C9FB03460C4A13600B4B1B68F3
:102BF0001846FEF709FF00BF80BD00BFC4020020D9
:102C0000FA0100200000002000080140FC01002023
:102C1000000C0140000200200402002008020020F5
:102C200080B500AF2348FEF703FE2248FEF7DAFA2C
:102C30002048FEF743FFFEF751FA4FF400511E48BB
:102C4000FEF780FE4FF480511B48FEF73DFB19480C
:102C5000FEF723FE1748FEF783FB1848FEF7B4FE85
:102C60001748FEF745FAFEF7FDFC00210020FEF7AD
:102C7000B3FC1448FEF791FC00210120FEF7ACFCE8
:102C80001148FEF78AFC1149114804F0F1FE104882
:102C9000FDF75EFA03469AB264230D490D4803F02E
:102CA00083FB4FF4FA7000F06FFDFEF78BFC00BF62
:102CB00080BD00BFC4020020000C01403C03002086
:102CC000CC030020DC9E0008F09E0008049F000852
:102CD000140200208403002080B5CAB000AF07F5BD
:102CE0009473A3F59273186007F59473A3F590732A
:102CF00018464FF480731A46002104F05BFF00234E
:102D0000C7F824310023C7F8203139E0D7F8203143
:102D100007F59472A2F59272126813441B7801337E
:102D2000B14A13441B7803F00303002B10D1D7F8EA
:102D3000203107F59472A2F59272126813441B7841
:102D40000133A94A13441B7803F00403002B12D06B
:102D5000D7F8203107F59472A2F5927212681A44DE
:102D6000D7F82431591CC7F82411117807F594724B
:102D7000A2F59072D154D7F820310133C7F8203131
:102D8000D7F8203107F59472A2F5927212681344B5
:102D90001B78002B03D0D7F82031FF2BB6DD07F5C9
:102DA0009473A3F59072D7F82431134400221A705B
:102DB00007F108031B78002B00F0538307F1080389
:102DC0008A4A4FF480718A4804F01CFE8848FDF757
:102DD000BFF903469AB264238549864803F0E4FAB2
:102DE00007F108038449184604F0F9FE0346002B56
:102DF0001BD107F108038149184604F0F0FE034691
:102E0000002B12D107F108034121184604F0DAFE25
:102E10000346002B00F0858007F108034F21184678
:102E200004F0D0FE0346002B7BD007F10803724963
:102E3000184604F0D4FEC7F81C01D7F81C31002B4B
:102E400007D107F108036D49184604F0C8FEC7F81A
:102E50001C01D7F81C31002B07D107F108034121D1
:102E6000184604F0AFFEC7F81C01D7F81C31002B40
:102E700057D004E0D7F81C310133C7F81C31D7F81C
:102E80001C311B78002B0AD0D7F81C311B7801337A
:102E9000554A13441B7803F00403002BEAD0D7F8FB
:102EA0001C311B780133504A13441B7803F0040390
:102EB000002B19D0D7F81C311B78303BDAB2504BBD
:102EC0001A704F4B1B784F4A4FF48071484804F0FA
:102ED00099FD4748FDF73CF903469AB264234449FB
:102EE000444803F061FABDE2454B1B78012B14BF47
:102EF00001230023DBB21A46414B1A70404B1B786A
:102F0000414A4FF480713A4804F07CFD3848FDF79F
:102F10001FF903469AB264233549364803F044FA50
:102F2000A0E2374B1B78012B10D1384A4FF4807147
:102F30002F4804F067FD2E48FDF70AF903469AB2C0
:102F400064232B492B4803F02FFA8BE207F1080387
:102F50004621184604F036FE0346002B78D007F1D0
:102F600008034621184604F02DFE03460133C7F836
:102F7000183104E0D7F818310133C7F81831D7F801
:102F800018311B78002B0AD0D7F818311B78013381
:102F9000154A13441B7803F00403002BEAD0D7F83A
:102FA00018311B780133104A13441B7803F00403D3
:102FB000002B31D0D7F818311B78303BDAB2144BE4
:102FC0001A70134B1B78134A4FF48071084804F0B1
:102FD00019FD0748FDF7BCF803469AB2642304497B
:102FE000044803F0E1F933E0E2A00008289F00085C
:102FF0000006002084030020349F00083C9F000846
:1030000000000020409F0008549F0008689F0008AF
:103010000D020020809F00089B4B1B78012B14BFE2
:1030200001230023DBB21A46974B1A70964B1B788C
:10303000964A4FF48071964804F0E4FC9448FDF7FA
:1030400087F803469AB264239149924803F0ACF999
:1030500007F108035021184604F0B4FD0346002B85
:1030600060D007F108035021184604F0ABFD034679
:103070000133C7F8143104E0D7F814310133C7F82D
:103080001431D7F814311B78002B0AD0D7F814313B
:103090001B780133804A13441B7803F00403002B90
:1030A000EAD0D7F814311B7801337B4A13441B78DC
:1030B00003F00403002B19D0D7F814311B78303BF0
:1030C000DAB2764B1A70754B1B78754A4FF48071E3
:1030D0006F4804F097FC6E48FDF73AF803469AB241
:1030E00064236B496B4803F05FF91BE06B4B1B7863
:1030F000012B14BF01230023DBB21A46674B1A7061
:10310000664B1B78674A4FF48071614804F07AFC83
:103110005F48FDF71DF803469AB264235C495D4899
:1031200003F042F907F108035F49184604F057FD20
:103130000346002B08D107F108034821184604F084
:1031400041FD0346002B70D007F10803564918468D
:1031500004F045FDC7F81001D7F81031002B08D155
:1031600007F108034821184604F02CFDC7F81001A8
:103170000AE0D7F810310233C7F8103104E0D7F86D
:1031800010310133C7F81031D7F810311B78002BFC
:103190000AD0D7F810311B7801333F4A13441B780B
:1031A00003F00403002BEAD0D7F810311B78013369
:1031B000394A13441B7803F00403002B19D0D7F8C5
:1031C00010311B78303BDAB2384B1A70374B1B7812
:1031D000374A4FF480712E4804F014FC2C48FCF759
:1031E000B7FF03469AB2642329492A4803F0DCF862
:1031F0001BE02E4B1B78012B14BF01230023DBB2F5
:103200001A462A4B1A70294B1B782A4A4FF48071B0
:103210001F4804F0F7FB1E48FCF79AFF03469AB2DA
:1032200064231B491B4803F0BFF807F10803224938
:10323000184604F0D4FC0346002B09D107F108031B
:103240004C21184604F0BEFC0346002B00F08C8095
:1032500007F108031849184604F0C1FCC7F80C012F
:10326000D7F80C31002B08D107F108034C21184680
:1032700004F0A8FCC7F80C0125E0D7F80C310233A4
:10328000C7F80C311FE000BF0D0200208C9F000822
:103290000006002084030020E2A000080E020020A7
:1032A000A09F0008AC9F0008C09F00080F020020EC
:1032B000C49F0008D49F0008EC9F0008D7F80C3189
:1032C0000133C7F80C31D7F80C311B78002B0AD02A
:1032D000D7F80C311B780133644A13441B7803F090
:1032E0000403002BEAD0D7F80C311B7801335F4A76
:1032F00013441B7803F00403002B19D0D7F80C31CA
:103300001B78303BDAB25A4B1A70594B1B78594A2A
:103310004FF48071584804F075FB5748FCF718FFCC
:1033200003469AB264235449544803F03DF81BE025
:103330004F4B1B78012B14BF01230023DBB21A462D
:103340004B4B1A704A4B1B784D4A4FF480714A48D8
:1033500004F058FB4848FCF7FBFE03469AB264238E
:103360004549464803F020F807F108034121184673
:1033700004F028FC0346002B74D007F108034149F0
:10338000184604F02CFC0346002B6BD107F1080310
:103390003D49184604F023FC0346002B62D107F197
:1033A00008034121184604F00DFC03460133C7F819
:1033B000083104E0D7F808310133C7F80831D7F8ED
:1033C00008311B78002B0AD0D7F808311B7801335D
:1033D000264A13441B7803F00403002BEAD0D7F8E5
:1033E00008311B780133214A13441B7803F004038E
:1033F000002B19D0D7F808311B78303BDAB2234BB9
:103400001A70224B1B78224A4FF480711A4804F03C
:10341000F9FA1948FCF79CFE03469AB26423164950
:10342000164802F0C1FF1DE0184B1B78012B14BF9A
:1034300001230023DBB21A46144B1A70134B1B787E
:10344000144A4FF480710C4804F0DCFA0A48FCF787
:103450007FFE03469AB264230749084802F0A4FF9E
:1034600000E000BF07F59477BD4680BDE2A00008EC
:1034700010020020F09F00080006002084030020B6
:1034800000A00008349F00083C9F00080C020020A8
:1034900018A0000828A0000880B500AF0122034949
:1034A000034803F00CF800BF80BD00BFF00400200B
:1034B000CC03002080B582B000AF78607B68154AED
:1034C000934223D1144B1B78FF2B0AD0124B1B784D
:1034D0005A1CD1B2104A11701A46104B1978104B71
:1034E000995400F047F903460E4A13600B4B1B78C2
:1034F0000A2B03D0094B1B780D2B02D10A4B01225A
:103500001A7001220549034802F0D9FF00BF0837AD
:10351000BD4680BDCC030020F4050020F00400204F
:10352000F4040020F8050020FC05002080B500AF61
:10353000374B1B78002B32D0364B1B78002B2ED00C
:1035400000F018F90246344B1B68D31A0A2B5DD9D8
:10355000304B1B781A46314B002199542F4B304A7F
:103560004FF480712F4804F04DFA2E48FCF7F0FD1F
:1035700003469AB264232B492B4802F015FF2748D3
:10358000FFF7AAFB234B00221A70214B00221A706E
:103590004FF480720021214804F00CFB36E01D4BF3
:1035A0001B78002B32D01A4B1B78002B2ED100F049
:1035B000E1F80246184B1B68D31A642B26D9154B29
:1035C0001B781A46154B00219954144B174A4FF497
:1035D0008071144804F016FA1248FCF7B9FD03464E
:1035E0009AB264230F49104802F0DEFE0B48FFF741
:1035F00073FB084B00221A70054B00221A704FF41F
:1036000080720021054804F0D5FAFFE700BF80BDB5
:10361000FC050020F4050020F8050020F40400203B
:1036200040A00008000600208403002050A00008ED
:103630002DE9F04389B006AF1A4B1B8898461A4B08
:103640009B789946184BDB781E46184B9B787B601D
:10365000174B1B681846FCF7E7FE04460D46154B52
:103660001B681846FCF7E0FE02460B46CDE9042332
:10367000CDE902457B68019300964B4642460E49D0
:103680000E4804F0F5F90D48FCF762FD03469AB2C6
:1036900064230A490A4802F087FE00BF0C37BD4682
:1036A000BDE8F083FA010020FC01002000020020A8
:1036B000040200200802002068A000081402002074
:1036C0008403002080B500AF084B1B68074A43F015
:1036D00010031360032000F04DFE0F2000F008F8E7
:1036E000FEF7F6FC0023184680BD00BF0020024014
:1036F00080B582B000AF7860124B1A68124B1B780D
:1037000019464FF47A73B3FBF1F3B2FBF3F31846A7
:1037100000F065FE0346002B01D001230EE07B681C
:103720000F2B0AD8002279684FF0FF3000F02DFEF1
:10373000064A7B681360002300E00123184608371F
:10374000BD4680BD040000200C00002008000020C1
:1037500080B400AF054B1B781A46054B1B68134419
:10376000034A136000BFBD4680BC70470C000020B8
:103770000007002080B400AF024B1B681846BD460E
:1037800080BC70470007002080B584B000AF78602F
:10379000FFF7F0FFB8607B68FB60FB68B3F1FF3FA9
:1037A00005D00A4B1B781A46FB681344FB6000BF28
:1037B000FFF7E0FF0246BB68D31AFA689A42F7D8CF
:1037C00000BF00BF1037BD4680BD00BF0C00002009
:1037D00080B586B000AF78600023FB7500233B61A5
:1037E0000023BB600023FB607B68002B01D1012319
:1037F000BEE07B689B68002B7B689B6A002B09D12D
:103800007B680022DA627B68002283F824207868D3
:10381000FEF790FC786800F0F1FB0346FB757B68CF
:103820009B6A03F01003002B40F09980FB7D002B76
:1038300040F095807B689B6A23F4885323F0020351
:1038400043F002027B689A627B685A687B68DB6996
:103850001A437B681B7B5B001343BA681343BB604E
:103860007B689B68B3F5807F03D07B689B68012BE6
:1038700002D14FF4807300E000233A6913433B61A7
:103880007B681B7D012B19D17B681B7B002B09D129
:103890007B689B69013B5A033B69134343F4006314
:1038A0003B610BE07B689B6A43F020027B689A6275
:1038B0007B68DB6A43F001027B68DA627B681B6825
:1038C0005B6823F469417B681B683A690A435A6064
:1038D0007B681B689A68284B13407A681268B9683D
:1038E0000B4393607B689B68B3F5807F03D07B6854
:1038F0009B68012B04D17B681B69013B1B05FB60A6
:103900007B681B68DB6A23F470017B681B68FA68BC
:103910000A43DA627B681B689A68184B1340BA68DE
:103920009A420BD17B680022DA627B689B6A23F0A3
:10393000030343F001027B689A6218E07B689B6A8C
:1039400023F0120343F010027B689A627B68DB6A03
:1039500043F001027B68DA620123FB7507E07B68B4
:103960009B6A43F010027B689A620123FB75FB7D22
:1039700018461837BD4680BDFDF7E1FFFE0E1FFF5C
:1039800080B584B000AF78600023FB737B6893F848
:103990002430012B01D1022398E07B68012283F8B7
:1039A0002420786800F0D0FA0346FB73FB7B002BE1
:1039B00040F087807B689B6A23F4407323F0010307
:1039C00043F480727B689A627B681B68414A934229
:1039D00005D1414B5B6803F47023002B15D17B6844
:1039E0009B6A23F480127B689A627B681B685B6821
:1039F00003F48063002B26D07B689B6A23F440533A
:103A000043F480527B689A621DE07B689B6A43F4B2
:103A100080127B689A627B681B682F4A934204D0AD
:103A20007B681B682B4A93420DD12B4B5B6803F4D8
:103A30008063002B07D07B689B6A23F4405343F4D8
:103A400080527B689A627B689B6A03F48053002BE8
:103A500006D07B68DB6A23F006027B68DA6202E04C
:103A60007B680022DA627B68002283F824207B686E
:103A70001B686FF002021A607B681B689B6803F486
:103A80006023B3F5602F13D17B681B68114A934202
:103A900005D1114B5B6803F47023002B08D17B68C0
:103AA0001B689A687B681B6842F4A0029A600CE06D
:103AB0007B681B689A687B681B6842F480129A6076
:103AC00003E07B68002283F82420FB7B1846103734
:103AD000BD4680BD002801400024014080B584B06F
:103AE00000AF78600023FB737B6893F82430012BD0
:103AF00001D102231AE07B68012283F82420786830
:103B000000F07CFA0346FB73FB7B002B09D17B683A
:103B10009B6A23F4885323F0010343F001027B687E
:103B20009A627B68002283F82420FB7B18461037BA
:103B3000BD4680BD90B587B000AF78603960002386
:103B40007B610023FB6000233B61FFF713FE78617C
:103B50007B681B689B6803F48073002B0BD07B6829
:103B60009B6A43F020027B689A627B68002283F89C
:103B700024200123D3E07B681B685B6803F4807317
:103B8000002B31D17B681B68DB6A03F47003002BC8
:103B90002AD121E03B68B3F1FF3F1DD03B68002BE9
:103BA00007D0FFF7E7FD02467B69D31A3A689A42CD
:103BB00012D27B681B681B6803F00203002B0BD139
:103BC0007B689B6A43F004027B689A627B680022F0
:103BD00083F824200323A2E07B681B681B6803F0A2
:103BE0000203002BD6D070E04F4B1C68022001F07E
:103BF000A9FC0346B4FBF3F27B681B6819694B4BC5
:103C00000B40002B18D17B681B68D968484B0B40D0
:103C1000002B11D17B681B681969464B0B40002BA8
:103C200008D17B681B68D968434B0B40002B01D13E
:103C3000142320E029231EE07B681B6819693D4B93
:103C40000B40002B06D17B681B68D9683A4B0B40B0
:103C5000002B0DD07B681B681969384B0B40002B7B
:103C600008D17B681B68D968344B0B40002B01D10D
:103C7000542300E0FC2302FB03F33B6121E03B689B
:103C8000B3F1FF3F1AD03B68002B07D0FFF772FD5E
:103C900002467B69D31A3A689A420FD2FB683A69A6
:103CA0009A420BD97B689B6A43F004027B689A6254
:103CB0007B68002283F82420032330E0FB68013373
:103CC000FB60FB683A699A42D9D87B681B686FF041
:103CD00012021A607B689B6A43F400727B689A62E6
:103CE0007B681B689B6803F46023B3F5602F15D1D4
:103CF0007B681B7B002B11D17B689B6A23F480724D
:103D00007B689A627B689B6A03F48053002B05D121
:103D10007B689B6A43F001027B689A620023184625
:103D20001C37BD4690BD00BF0400002024499224EA
:103D30002449920092244912922449004992240075
:103D400080B483B000AF78607B681B68DB6C18467A
:103D50000C37BD4680BC704780B485B000AF78603A
:103D600039600023FB730023BB607B6893F8243029
:103D7000012B01D10223DCE07B68012283F824209F
:103D80003B685B68062B1CD87B681B68596B3B68DB
:103D90005A6813469B001344053B1F2202FA03F3A3
:103DA000DB4319403B6818683B685A6813469B0020
:103DB0001344053B00FA03F27B681B680A435A630D
:103DC0003CE03B685B680C2B1CD87B681B68196B5C
:103DD0003B685A6813469B001344233B1F2202FA98
:103DE00003F3DB4319403B6818683B685A68134685
:103DF0009B001344233B00FA03F27B681B680A43D1
:103E00001A631BE07B681B68D96A3B685A681346D3
:103E10009B001344413B1F2202FA03F3DB4319408A
:103E20003B6818683B685A6813469B001344413B43
:103E300000FA03F27B681B680A43DA623B681B687E
:103E4000092B1CD97B681B68D9683B681A68134624
:103E50005B0013441E3B072202FA03F3DB431940C5
:103E60003B6898683B681A6813465B0013441E3B26
:103E700000FA03F27B681B680A43DA6019E07B688A
:103E80001B6819693B681A6813465B0013440722D4
:103E900002FA03F3DB4319403B6898683B681A68F1
:103EA00013465B00134400FA03F27B681B680A4365
:103EB0001A613B681B68102B03D03B681B68112BF1
:103EC00032D17B681B681D4A934225D17B681B68F1
:103ED0009B6803F40003002B26D17B681B689A685B
:103EE0007B681B6842F400029A603B681B68102BD9
:103EF0001AD1134B1B68134AA2FB03239A0C1346D7
:103F00009B0013445B00BB6002E0BB68013BBB60ED
:103F1000BB68002BF9D107E07B689B6A43F0200265
:103F20007B689A620123FB737B68002283F824205C
:103F3000FB7B18461437BD4680BC70470024014007
:103F40000400002083DE1B4380B584B000AF78609E
:103F50000023FB600023BB607B681B689B6803F049
:103F60000103012B40D07B681B689A687B681B6843
:103F700042F001029A601F4B1B681F4AA2FB0323F9
:103F80009B0CBB6002E0BB68013BBB60BB68002BC5
:103F9000F9D1FFF7EFFBF8601FE0FFF7EBFB0246FC
:103FA000FB68D31A022B18D97B681B689B6803F047
:103FB0000103012B11D07B689B6A43F010027B68E0
:103FC0009A627B68DB6A43F001027B68DA627B6895
:103FD000002283F82420012307E07B681B689B688C
:103FE00003F00103012BD8D1002318461037BD463A
:103FF00080BD00BF0400002083DE1B4380B584B079
:1040000000AF78600023FB607B681B689B6803F04F
:104010000103012B2ED17B681B689A687B681B68A3
:1040200022F001029A60FFF7A5FBF8601BE0FFF7A2
:10403000A1FB0246FB68D31A022B14D97B681B68CC
:104040009B6803F00103012B0DD17B689B6A43F051
:1040500010027B689A627B68DB6A43F001027B682E
:10406000DA62012307E07B681B689B6803F00103A9
:10407000012BDCD0002318461037BD4680BD000060
:1040800090B587B000AF78600023FB750023FB601C
:104090007B6893F82430012B01D1022397E07B68E1
:1040A000012283F824207868FFF7A8FF0346FB75F8
:1040B0007868FFF749FF0346FB75FB7D002B40F056
:1040C00081807B689B6A23F4885323F0020343F0CA
:1040D00002027B689A62404B1C68022001F032FAAF
:1040E0000346B4FBF3F35B00FB6002E0FB68013BBB
:1040F000FB60FB68002BF9D17B681B689A687B68C2
:104100001B6842F008029A60FFF734FB38611BE03D
:10411000FFF730FB02463B69D31A0A2B14D97B68A0
:104120001B689B6803F00803002B0DD07B689B6A1B
:1041300023F0120343F010027B689A627B6800222E
:1041400083F82420012342E07B681B689B6803F00E
:104150000803002BDCD17B681B689A687B681B68AE
:1041600042F004029A60FFF705FB38611BE0FFF79D
:1041700001FB02463B69D31A0A2B14D97B681B68E2
:104180009B6803F00403002B0DD07B689B6A23F02F
:10419000120343F010027B689A627B68002283F866
:1041A0002420012313E07B681B689B6803F0040351
:1041B000002BDCD17B689B6A23F0030343F00102F0
:1041C0007B689A627B68002283F82420FB7D184676
:1041D0001C37BD4690BD00BF0400002080B485B0F0
:1041E00000AF78607B6803F00703FB600C4BDB6873
:1041F000BB60BA684FF6FF031340BB60FB681A024E
:10420000BB68134343F0BF6343F40033BB60044A0D
:10421000BB68D36000BF1437BD4680BC704700BF89
:1042200000ED00E080B400AF044BDB681B0A03F034
:1042300007031846BD4680BC704700BF00ED00E094
:1042400080B483B000AF0346FB7197F90730002BB1
:104250000BDBFB7903F01F02064997F907305B0976
:10426000012000FA02F241F8232000BF0C37BD46BE
:1042700080BC704700E100E080B483B000AF03462B
:104280003960FB7197F90730002B0ADB3B68DAB223
:104290000C4997F907301201D2B20B4483F800237E
:1042A0000AE03B68DAB20849FB7903F00F03043BEC
:1042B0001201D2B20B441A7600BF0C37BD4680BC47
:1042C000704700BF00E100E000ED00E080B489B07D
:1042D00000AFF860B9607A60FB6803F00703FB6128
:1042E000FB69C3F10703042B28BF0423BB61FB69EF
:1042F0000433062B02D9FB69033B00E000237B61FA
:104300004FF0FF32BB6902FA03F3DA43BB681A408D
:104310007B699A404FF0FF317B6901FA03F3D9437F
:104320007B680B40134318462437BD4680BC70475A
:1043300080B582B000AF78607B68013BB3F1807FCD
:1043400001D301230FE00A4A7B68013B53600F2130
:104350004FF0FF30FFF790FF054B00229A60044BAF
:1043600007221A60002318460837BD4680BD00BFEB
:1043700010E000E080B582B000AF78607868FFF7A9
:104380002DFF00BF0837BD4680BD80B586B000AFA9
:104390000346B9607A60FB7300237B61FFF742FF3D
:1043A00078617A68B9687869FFF790FF024697F9F3
:1043B0000F3011461846FFF75FFF00BF1837BD46A4
:1043C00080BD80B582B000AF0346FB7197F907301E
:1043D0001846FFF735FF00BF0837BD4680BD80B5E2
:1043E00082B000AF78607868FFF7A2FF03461846F6
:1043F0000837BD4680BD000080B485B000AF78604E
:104400000023FB607B68002B01D1012343E07B6824
:104410001B681A46224B1344224AA2FB03231B09A2
:104420009A007B681A647B681F4ADA637B68022201
:1044300083F821207B681B681B68FB60FB6823F402
:104440007F5323F03003FB607B685A687B689B686E
:104450001A437B68DB681A437B681B691A437B68D5
:104460005B691A437B689B691A437B68DB6913436A
:10447000FA681343FB607B681B68FA681A607B6804
:1044800000229A637B68012283F821207B68002246
:1044900083F82020002318461437BD4680BC70479F
:1044A000F8FFFDBFCDCCCCCC0000024080B485B07D
:1044B00000AF78600023FB737B6893F82130DBB298
:1044C000022B08D07B6804229A637B68002283F861
:1044D0002020012320E07B681B681A687B681B682A
:1044E00022F00E021A607B681B681A687B681B68E2
:1044F00022F001021A607B681A6C7B68DB6B012179
:1045000001FA02F25A607B68012283F821207B685D
:10451000002283F82020FB7B18461437BD4680BC60
:104520007047000080B584B000AF78600023FB7353
:104530007B6893F82130DBB2022B05D07B68042224
:104540009A630123FB7351E07B681B681A687B68E0
:104550001B6822F00E021A607B681B681A687B6871
:104560001B6822F001021A607B681B68224A934292
:1045700029D07B681B68214A934222D07B681B6844
:104580001F4A93421AD07B681B681E4A934212D07E
:104590007B681B681C4A93420AD07B681B681B4AD5
:1045A000934202D14FF480130EE04FF080730BE082
:1045B0004FF4803308E04FF4805305E04FF48073EC
:1045C00002E0102300E00123114A53607B680122BE
:1045D00083F821207B68002283F820207B685B6BB6
:1045E000002B03D07B685B6B78689847FB7B184691
:1045F0001037BD4680BD00BF080002401C000240CD
:104600003000024044000240580002406C0002406A
:104610000000024080B584B000AF78607B68DB6B3F
:104620001B68FB607B681B681B68BB607B681B6C3E
:1046300004229A40FB681340002B4FD0BB6803F064
:104640000403002B4AD07B681B681B6803F020031F
:10465000002B07D17B681B681A687B681B6822F0F7
:1046600004021A607B681B68664A934229D07B6803
:104670001B68654A934222D07B681B68634A934259
:104680001AD07B681B68624A934212D07B681B6811
:10469000604A93420AD07B681B685F4A934202D10A
:1046A0004FF480030EE04FF080630BE04FF4802363
:1046B00008E04FF4804305E04FF4806302E04023BC
:1046C00000E00423554A53607B68DB6A002B00F04E
:1046D00094807B68DB6A786898478EE07B681B6C07
:1046E00002229A40FB681340002B56D0BB6803F0AF
:1046F0000203002B51D07B681B681B6803F020036A
:10470000002B0BD17B681B681A687B681B6822F042
:104710000A021A607B68012283F821207B681B68EB
:10472000384A934229D07B681B68374A934222D08B
:104730007B681B68354A93421AD07B681B68344AF1
:10474000934212D07B681B68324A93420AD07B683E
:104750001B68314A934202D14FF400130EE04FF030
:1047600000730BE04FF4003308E04FF4005305E012
:104770004FF4007302E0202300E00223274A536035
:104780007B68002283F820207B689B6A002B34D052
:104790007B689B6A786898472FE07B681B6C0822CF
:1047A0009A40FB681340002B28D0BB6803F0080335
:1047B000002B23D07B681B681A687B681B6822F07B
:1047C0000E021A607B681A6C7B68DB6B012101FAB0
:1047D00002F25A607B6801229A637B68012283F8A7
:1047E00021207B68002283F820207B681B6B002B34
:1047F00004D07B681B6B7868984700BF00BF1037F8
:10480000BD4680BD080002401C000240300002404E
:1048100044000240580002406C0002400000024088
:1048200080B48BB000AF7860396000237B620023D6
:104830003B6269E101227B6A02FA03F3FB613B6898
:104840001B68FA691340BB61BA69FB699A4240F080
:1048500058813B685B689A4A93425ED0984A93427B
:1048600075D8984A934258D0964A93426FD8964A40
:10487000934252D0944A934269D8944A93424CD07E
:10488000924A934263D8924A934246D0904A9342C6
:104890005DD8122B2AD8122B59D801A252F823F036
:1048A0001B490008F5480008074900084949000865
:1048B0004F4900084F4900084F4900084F49000878
:1048C0004F4900084F4900084F4900084F49000868
:1048D0004F4900084F4900084F4900084F49000858
:1048E0004F490008FD48000811490008794A9342E1
:1048F00013D02CE03B68DB683B6229E03B68DB6857
:1049000004333B6224E03B68DB6808333B621FE012
:104910003B68DB680C333B621AE03B689B68002B0A
:1049200002D104233B6213E03B689B68012B05D155
:1049300008233B627B68FA691A6109E008233B623D
:104940007B68FA695A6103E000233B6200E000BF24
:10495000BB69FF2B01D87B6801E07B6804337B6176
:10496000BB69FF2B02D87B6A9B0002E07B6A083B95
:104970009B003B617B691A680F213B6901FA03F3D5
:10498000DB431A40396A3B6901FA03F31A437B6936
:104990001A603B685B6803F08053002B00F0B18025
:1049A0004D4B9B694C4A43F0010393614A4B9B6911
:1049B00003F00103BB60BB68484A7B6A9B08023373
:1049C00052F82330FB607B6A03F003039B000F2245
:1049D00002FA03F3DB43FA681340FB607B68404A4A
:1049E000934213D07B683F4A93420DD07B683E4A86
:1049F000934207D07B683D4A934201D1032306E0EE
:104A0000042304E0022302E0012300E000237A6A89
:104A100002F0030292009340FA681343FB602F49AF
:104A20007B6A9B080233FA6841F823203B685B6885
:104A300003F48013002B06D02D4B9A682C49BB69D8
:104A400013438B6006E02A4B9A68BB69DB43284915
:104A500013408B603B685B6803F40013002B06D0A7
:104A6000234BDA682249BB691343CB6006E0204B35
:104A7000DA68BB69DB431E491340CB603B685B6867
:104A800003F40033002B06D0194B5A681849BB6950
:104A900013434B6006E0164B5A68BB69DB4314496D
:104AA00013404B603B685B6803F48033002B21D0DC
:104AB0000F4B1A680E49BB6913430B6021E000BF1E
:104AC0000000321000003110000022100000211000
:104AD0000000121000001110001002400000014000
:104AE00000080140000C014000100140001401408A
:104AF000000401400B4B1A68BB69DB4309491340B2
:104B00000B607B6A01337B623B681A687B6A22FA1E
:104B100003F3002B7FF48EAE00BF00BF2C37BD46E1
:104B200080BC70470004014080B485B000AF78605D
:104B30000B467B807B689A687B881340002B02D0F1
:104B40000123FB7301E00023FB73FB7B1846143742
:104B5000BD4680BC704780B483B000AF78600B4620
:104B60007B8013467B707B78002B03D07A887B6830
:104B70001A6103E07B881A047B681A6100BF0C3756
:104B8000BD4680BC704780B485B000AF78600B46EE
:104B90007B807B68DB68FB607A88FB6813401A04C3
:104BA000FB68D9437B880B401A437B681A6100BFBE
:104BB0001437BD4680BC704780B586B000AF7860C2
:104BC0007B68002B01D1012372E27B681B6803F034
:104BD0000103002B00F08780924B5B6803F00C030D
:104BE000042B0CD08F4B5B6803F00C03082B12D105
:104BF0008C4B5B6803F48033B3F5803F0BD1894B5A
:104C00001B6803F40033002B6CD07B685B68002BBF
:104C100068D101234CE27B685B68B3F5803F06D125
:104C2000804B1B687F4A43F4803313602EE07B681F
:104C30005B68002B0CD17B4B1B687A4A23F48033D2
:104C40001360784B1B68774A23F4802313601DE0C0
:104C50007B685B68B3F5A02F0CD1724B1B68714A5F
:104C600043F4802313606F4B1B686E4A43F4803318
:104C700013600BE06B4B1B686A4A23F480331360AC
:104C8000684B1B68674A23F4802313607B685B686A
:104C9000002B13D0FEF76EFD386108E0FEF76AFDC9
:104CA00002463B69D31A642B01D9032300E25D4B12
:104CB0001B6803F40033002BF0D014E0FEF75AFD1C
:104CC000386108E0FEF756FD02463B69D31A642BB3
:104CD00001D90323ECE1534B1B6803F40033002B91
:104CE000F0D100E000BF7B681B6803F00203002BDB
:104CF00063D04C4B5B6803F00C03002B0BD0494B8B
:104D00005B6803F00C03082B1CD1464B5B6803F473
:104D10008033002B16D1434B1B6803F00203002B9A
:104D200005D07B681B69012B01D00123C0E13D4BFD
:104D30001B6823F0F8027B685B69DB003949134389
:104D40000B603AE07B681B69002B20D0364B0122B8
:104D50001A60FEF70FFD386108E0FEF70BFD024612
:104D60003B69D31A022B01D90323A1E12D4B1B6808
:104D700003F00203002BF0D02A4B1B6823F0F8024B
:104D80007B685B69DB00274913430B6015E0264B0A
:104D900000221A60FEF7EEFC386108E0FEF7EAFC3C
:104DA00002463B69D31A022B01D9032380E11D4B34
:104DB0001B6803F00203002BF0D17B681B6803F033
:104DC0000803002B3AD07B689B69002B19D0174B46
:104DD00001221A60FEF7CEFC386108E0FEF7CAFC3B
:104DE00002463B69D31A022B01D9032360E10D4B24
:104DF0005B6A03F00203002BF0D0012000F0CEFA32
:104E00001CE00A4B00221A60FEF7B4FC38610FE088
:104E1000FEF7B0FC02463B69D31A022B08D90323E4
:104E200046E100BF001002400000424280044242BE
:104E3000924B5B6A03F00203002BE9D17B681B688D
:104E400003F00403002B00F0A6800023FB758B4BBE
:104E5000DB6903F08053002B0DD1884BDB69874A57
:104E600043F08053D361854BDB6903F08053BB6013
:104E7000BB680123FB75824B1B6803F48073002B16
:104E800018D17F4B1B687E4A43F480731360FEF792
:104E900071FC386108E0FEF76DFC02463B69D31AED
:104EA000642B01D9032303E1754B1B6803F4807362
:104EB000002BF0D07B68DB68012B06D16F4B1B6A9F
:104EC0006E4A43F0010313622DE07B68DB68002B20
:104ED0000CD16A4B1B6A694A23F001031362674BCA
:104EE0001B6A664A23F0040313621CE07B68DB68DC
:104EF000052B0CD1614B1B6A604A43F0040313621B
:104F00005E4B1B6A5D4A43F0010313620BE05B4B8F
:104F10001B6A5A4A23F001031362584B1B6A574A13
:104F200023F0040313627B68DB68002B15D0FEF7C7
:104F300021FC38610AE0FEF71DFC02463B69D31AEA
:104F400041F28832934201D90323B1E04B4B1B6AF3
:104F500003F00203002BEED014E0FEF70BFC3861E7
:104F60000AE0FEF707FC02463B69D31A41F2883299
:104F7000934201D903239BE0404B1B6A03F00203D9
:104F8000002BEED1FB7D012B05D13C4BDB693B4A6D
:104F900023F08053D3617B68DB69002B00F08780AE
:104FA000364B5B6803F00C03082B61D07B68DB6930
:104FB000022B46D1334B00221A60FEF7DBFB38612F
:104FC00008E0FEF7D7FB02463B69D31A022B01D952
:104FD00003236DE0294B1B6803F00073002BF0D115
:104FE0007B681B6AB3F5803F08D1244B5B6823F4D0
:104FF00000327B689B68214913434B601F4B5B6801
:1050000023F474127B68196A7B685B6A0B431B4943
:1050100013434B601B4B01221A60FEF7ABFB386158
:1050200008E0FEF7A7FB02463B69D31A022B01D921
:1050300003233DE0114B1B6803F00073002BF0D0FD
:1050400035E0104B00221A60FEF794FB386108E04F
:10505000FEF790FB02463B69D31A022B01D90323CA
:1050600026E0064B1B6803F00073002BF0D11EE016
:105070007B68DB69012B07D1012319E00010024096
:1050800000700040600042420B4B5B68FB60FB68B5
:1050900003F480327B681B6A9A4206D1FB6803F4F2
:1050A00070127B685B6A9A4201D0012300E0002302
:1050B00018461837BD4680BD0010024080B584B048
:1050C00000AF786039607B68002B01D10123D0E00C
:1050D0006A4B1B6803F007033A689A4210D9674B82
:1050E0001B6823F0070265493B6813430B60634B61
:1050F0001B6803F007033A689A4201D00123B8E025
:105100007B681B6803F00203002B20D07B681B68C0
:1051100003F00403002B05D0594B5B68584A43F455
:10512000E06353607B681B6803F00803002B05D025
:10513000534B5B68524A43F460535360504B5B6877
:1051400023F0F0027B689B684D4913434B607B68FA
:105150001B6803F00103002B40D07B685B68012BC8
:1051600007D1474B1B6803F40033002B15D10123F3
:105170007FE07B685B68022B07D1414B1B6803F023
:105180000073002B09D1012373E03D4B1B6803F032
:105190000203002B01D101236BE0394B5B6823F044
:1051A00003027B685B68364913434B60FEF7E2FA03
:1051B000F8600AE0FEF7DEFA0246FB68D31A41F215
:1051C0008832934201D9032353E02D4B5B6803F0EF
:1051D0000C027B685B689B009A42EBD1274B1B68F3
:1051E00003F007033A689A4210D2244B1B6823F05D
:1051F000070222493B6813430B60204B1B6803F0F6
:1052000007033A689A4201D0012332E07B681B68A9
:1052100003F00403002B08D0194B5B6823F4E06211
:105220007B68DB68164913434B607B681B6803F09F
:105230000803002B09D0124B5B6823F460527B6893
:105240001B69DB000E4913434B6000F021F8024656
:105250000B4B5B681B0903F00F030A49CB5C22FA76
:1052600003F3094A1360094B1B681846FEF740FA1E
:10527000002318461037BD4680BD00BF0020024005
:1052800000100240A4A00008040000200800002034
:1052900080B487B000AF0023FB600023BB60002315
:1052A0007B6100237B6000233B611E4B5B68FB60DE
:1052B000FB6803F00C03042B02D0082B03D027E07B
:1052C000194B3B6127E0FB689B0C03F00F03174A67
:1052D000D35C7B60FB6803F48033002B10D0114B50
:1052E0005B685B0C03F00103114AD35CBB607B6815
:1052F0000D4A03FB02F2BB68B2FBF3F37B6104E0EF
:105300007B680C4A02FB03F37B617B693B6102E033
:10531000054B3B6100BF3B6918461C37BD4680BC4E
:10532000704700BF0010024000127A00BCA00008C5
:10533000CCA0000800093D0080B400AF024B1B6800
:105340001846BD4680BC70470400002080B500AF01
:10535000FFF7F2FF0246054B5B681B0A03F00703E9
:105360000349CB5C22FA03F3184680BD00100240CB
:10537000B4A0000880B500AFFFF7DEFF0246054B82
:105380005B68DB0A03F007030349CB5C22FA03F3F3
:10539000184680BD00100240B4A0000880B485B05B
:1053A00000AF78600A4B1B680A4AA2FB03235B0A22
:1053B0007A6802FB03F3FB6000BFFB685A1EFA60C9
:1053C000002BF9D100BF00BF1437BD4680BC704729
:1053D00004000020D34D621080B586B000AF786025
:1053E00000233B610023FB607B681B6803F0010323
:1053F000002B7DD00023FB754F4BDB6903F08053FE
:10540000002B0DD14C4BDB694B4A43F08053D361E9
:10541000494BDB6903F08053BB60BB680123FB751C
:10542000464B1B6803F48073002B18D1434B1B6859
:10543000424A43F480731360FEF79CF9386108E038
:10544000FEF798F902463B69D31A642B01D903236E
:105450006DE03A4B1B6803F48073002BF0D0364BA1
:105460001B6A03F44073FB60FB68002B2ED07B6843
:105470005B6803F44073FA689A4227D02E4B1B6A8C
:1054800023F44073FB602E4B01221A602C4B002248
:105490001A60294AFB681362FB6803F00103002BC2
:1054A00014D0FEF767F938610AE0FEF763F90246A7
:1054B0003B69D31A41F28832934201D9032336E083
:1054C0001D4B1B6A03F00203002BEED01A4B1B6A24
:1054D00023F440727B685B68174913430B62FB7DC2
:1054E000012B05D1144BDB69134A23F08053D361A0
:1054F0007B681B6803F00203002B08D00E4B5B682F
:1055000023F440427B689B680B4913434B607B68E4
:105510001B6803F01003002B08D0074B5B6823F4D3
:1055200080027B68DB68044913434B600023184604
:105530001837BD4680BD00BF00100240007000401B
:105540004004424280B588B000AF786000237B61A0
:105550000023FB6100233B610023FB600023BB6150
:105560007B68102B0AD07B68102B00F28A807B6846
:10557000012B45D07B68022B75D082E0464B5B68DF
:10558000FB60454B1B6803F08073002B7BD0FB68EE
:105590009B0C03F00F03414AD35C3B61FB6803F4AF
:1055A0008033002B15D03C4B5B685B0C03F0010390
:1055B0003B4AD35C7B61FB6803F48033002B0DD046
:1055C000384A7B69B2FBF3F23B6902FB03F3FB61F0
:1055D00004E03B69344A02FB03F3FB612E4B5B683A
:1055E00003F48003B3F5800F02D1FB69BB614AE08D
:1055F000FB695B002D4AA2FB03235B08BB6142E011
:10560000254B1B6AFB60FB6803F44073B3F5807F96
:1056100008D1FB6803F00203002B03D04FF40043D2
:10562000BB611FE0FB6803F44073B3F5007F09D151
:10563000194B5B6A03F00203002B03D049F6404389
:10564000BB610FE0FB6803F44073B3F5407F1CD1EE
:10565000114B1B6803F40033002B16D04FF2244388
:10566000BB6112E011E0FFF785FE02460A4B5B6862
:105670009B0B03F0030301335B00B2FBF3F3BB614D
:1056800004E000BF02E000BF00E000BFBB691846B5
:105690002037BD4680BD00BF00100240D0A00008EA
:1056A000E0A0000800127A0000093D00ABAAAAAAF7
:1056B00080B582B000AF78607B68002B01D10123F8
:1056C00041E07B6893F83D30DBB2002B06D17B686C
:1056D000002283F83C207868FCF768FD7B68022292
:1056E00083F83D207B681A687B68043319461046AE
:1056F00000F0FCFA7B68012283F846207B680122D7
:1057000083F83E207B68012283F83F207B680122DA
:1057100083F840207B68012283F841207B680122C6
:1057200083F842207B68012283F843207B680122B2
:1057300083F844207B68012283F845207B6801229E
:1057400083F83D20002318460837BD4680BD000081
:1057500080B485B000AF78607B6893F83D30DBB2F1
:10576000012B01D0012332E07B68022283F83D2027
:105770007B681B68184A93420ED07B681B68B3F1A4
:10578000804F09D07B681B68144A934204D07B6821
:105790001B68134A934211D17B681B689B6803F016
:1057A0000703FB60FB68062B10D07B681B681A6838
:1057B0007B681B6842F001021A6007E07B681B6887
:1057C0001A687B681B6842F001021A6000231846C1
:1057D0001437BD4680BC7047002C014000040040D7
:1057E0000008004080B582B000AF78607B68002B75
:1057F00001D1012341E07B6893F83D30DBB2002BFF
:1058000006D17B68002283F83C20786800F039F8E4
:105810007B68022283F83D207B681A687B6804332A
:105820001946104600F062FA7B68012283F8462090
:105830007B68012283F83E207B68012283F83F20A9
:105840007B68012283F840207B68012283F8412095
:105850007B68012283F842207B68012283F8432081
:105860007B68012283F844207B68012283F845206D
:105870007B68012283F83D20002318460837BD4687
:1058800080BD80B483B000AF786000BF0C37BD46E8
:1058900080BC704780B584B000AF786039603B68E9
:1058A000002B09D17B6893F83E30DBB2012B14BF8B
:1058B00001230023DBB222E03B68042B09D17B6883
:1058C00093F83F30DBB2012B14BF01230023DBB27E
:1058D00015E03B68082B09D17B6893F84030DBB2B8
:1058E000012B14BF01230023DBB208E07B6893F88F
:1058F0004130DBB2012B14BF01230023DBB2002BAC
:1059000001D001235EE03B68002B04D17B680222BA
:1059100083F83E2013E03B68042B04D17B6802220D
:1059200083F83F200BE03B68082B04D17B68022200
:1059300083F8402003E07B68022283F841207B68E3
:105940001B6801223968184600F05CFC7B681B6804
:105950001E4A934207D17B681B685A6C7B681B68A0
:1059600042F400425A647B681B68184A93420ED086
:105970007B681B68B3F1804F09D07B681B68144AB1
:10598000934204D07B681B68124A934211D17B6812
:105990001B689B6803F00703FB60FB68062B10D0B5
:1059A0007B681B681A687B681B6842F001021A60FA
:1059B00007E07B681B681A687B681B6842F001027D
:1059C0001A60002318461037BD4680BD002C0140E8
:1059D000000400400008004080B586B000AFF860C9
:1059E000B9607A600023FB75FB6893F83C30012BAB
:1059F00001D10223AEE0FB68012283F83C207B68E2
:105A00000C2B00F29F8001A252F823F0415A0008AB
:105A1000455B0008455B0008455B0008815A0008AB
:105A2000455B0008455B0008455B0008C35A000859
:105A3000455B0008455B0008455B0008035B000808
:105A4000FB681B68B968184600F0BEF9FB681B6864
:105A50009A69FB681B6842F008029A61FB681B6840
:105A60009A69FB681B6822F004029A61FB681B6854
:105A70009969BB681A69FB681B680A439A6164E00C
:105A8000FB681B68B968184600F004FAFB681B68DD
:105A90009A69FB681B6842F400629A61FB681B68A4
:105AA0009A69FB681B6822F480629A61FB681B6834
:105AB0009969BB681B691A02FB681B680A439A61F3
:105AC00043E0FB681B68B968184600F04DFAFB68B4
:105AD0001B68DA69FB681B6842F00802DA61FB6840
